:020000040000FA
:020000000C28CA
:08000800A000030EA100210E6F
:100010008300A00E200E090003138316083085000C
:100020000F308600F03087000030880000308900F3
:1000300000308B005F30810007309F000313831274
:10004000203084008001840A0408803A031D22289D
:10005000850186018701880189014B30CD238910F4
:10006000091009111430CD23303083201430CD23F2
:10007000303083201430CD23303083201430CD2312
:10008000203083201430CD23283070201430CD232D
:100090000F3070201430CD23063070201430CD2363
:1000A000013070201430CD230E307020C901D020D3
:1000B0000130C800CC2AF7200230C800CC2A202109
:1000C0000330C800CC2A49210430C800CC2A0530AE
:1000D000C8000030C7007221CC2A0630C80056285C
:1000E000A700F03988000000891400000A30CD23F1
:1000F0008910270EF0398800000089147F280A3003
:10010000CD2389100800F039880000008914000010
:100110000A30CD2389100800B501B6013308B400B8
:10012000B7189828371898283808003A0319080093
:100130003308003A031908003808B6070318B50A4F
:100140003708B507B40B9C280800A901AA012B08A1
:10015000AD002C08AE0030082D020130031C2E0229
:10016000031CB6282B08B1002C08B200C2200130B5
:10017000031C0800AA070318A90A2D08B1002E08BD
:10018000B200B6283008AD020130031CAE02031CD9
:10019000CC282F08AE0208002F08AE02031008007A
:1001A00009108030702009144E30702049307020C2
:1001B00056307020453070204C3070202030702038
:1001C0004430702045307020203070205330702033
:1001D0004130702042307020413070204F3070200C
:1001E0003A3070200910C03070200914080009103E
:1001F0008030702009144E30702049307020563005
:100200007020453070204C307020203070204430F9
:1002100070204530702020307020413070204730F1
:10022000702055307020413070203A3070202030DE
:100230007020203070200910C03070200914080090
:1002400009108030702009144E3070204930702021
:1002500056307020453070204C3070202030702097
:10026000413070204D30702041307020433070207C
:1002700049307020413070204E3070205430702052
:10028000453070203A3070200910C03070200914B9
:100290000800091080307020091454307020493053
:1002A0007020503070204F3070202030702044304B
:1002B00070204530702020307020523070204F3038
:1002C00070205530702050307020413070203A300E
:1002D000702020307020203070200910C030702035
:1002E000091408000910803070200914543070205F
:1002F00049307020503070204F30702020307020F6
:1003000044307020453070202030702053307020F1
:10031000553070204A3070204530702049307020B0
:1003200052307020413070203A3070200910C030B7
:100330007020091408000910C03070200914470803
:10034000303E7020203070202D3070202030702002
:1003500020307020203070203C30702050307020D1
:100360005230702045307020533070205330702050
:10037000203070204F3070204B3070203E30702085
:10038000091408004708013A0319EB290910C03085
:1003900070200914313070202D30702020307020F2
:1003A000523070204F307020553070205030702007
:1003B0004130702020307020423070205230702048
:1003C000413070204E30702043307020413070201A
:1003D0002030702009144708023A0319102A3230DD
:1003E00070202D307020523070204F3070205530EA
:1003F0007020503070204130702020307020433009
:1004000070204F3070204C3070204F3070205230B0
:100410007020493070204430702041307020091421
:100420004708033A0319352A333070202D307020E5
:1004300020307020433070204F30702042307020C8
:100440004530702052307020543070204F30702072
:1004500052307020203070202030702020307020EA
:10046000203070202030702009144708043A031906
:100470000800343070202D307020523070204F3002
:100480007020553070205030702041307020203066
:10049000702044307020453070204C30702049303E
:1004A0007020433070204130702044307020413043
:1004B0007020091408004708003A0319832A09101C
:1004C000C03070200914313070202D307020203061
:1004D0007020503070204F307020553070204330E5
:1004E00070204F30702020307020533070205530F5
:1004F00070204A3070204130702020307020203031
:100500007020203070204708013A0319A72A3230A2
:1005100070202D30702053307020553070204A30BC
:10052000702041307020203070202030702020302A
:10053000702020307020203070202030702020303B
:1005400070202030702044307020413070204708E7
:10055000023A0319DD2A333070202D3070204D30DF
:1005600070205530702049307020543070204F304A
:1005700070202030702053307020553070204A3069
:1005800070204130702020307020203070202030CA
:100590007020203070200800FE30C0008700060860
:1005A000C300F0304304FF3A0319D72ADF2A0314AB
:1005B000F73040060319CC2AC00D4008CE2A05307A
:1005C000D9230608C30006084304FF3A031DE32AA3
:1005D000E92AC01D3A2B401D0A2BC01C032BC3184F
:1005E000F62A0130C7009B215C23CC2A4319FD2A3F
:1005F0000230C7009B215C23C319022B0330C700C4
:100600009B215C23CC2A4318092B0330C7009B2174
:100610005C23CC2A0530C8060319CC2A0608C3007F
:100620004319242B0130D9230608C300431D142B82
:1006300000304706031D1F2BC7035B220800023052
:10064000C7005B225C23CC2A0608C300C319CC2A4E
:100650000130D9230608C300C31D2A2B02304706E8
:10066000031D352BC7035B2208000030C7005B2247
:100670005C23CC2A4318432B0130D9234318432B46
:10068000431C402B56280630C8060319CC2AC31831
:10069000512B0130D923C318512BC31C4D2B0C30C7
:1006A000C70043195B2B0130D92343195B2B431D32
:1006B000572B0D30C700CC2A9B21F7308700C31978
:1006C000692B0130D923C319692BC31D652BA023C6
:1006D00008000530480603198F2BFD3087000608F7
:1006E000C300FF304306031D7E2B0130D9230608CB
:1006F000C300FF3043060319772B0800FE30870044
:100700000608C300FF304306031D5C2B0130D923CC
:100710000608C300FF3043060319882B0800FB308E
:1007200087000608C300FF304306031D5C2B013021
:10073000D9230608C300FF3043060319992B08008C
:100740004708831203178C0083120313490883128E
:1007500003178D00831603178C130C1555308D006D
:10076000AA308D008C148C18B32B0C118312031338
:10077000C90A0130483A03195B2808004908831266
:1007800003178D00831603178C130C1483120317A1
:100790000C0883120313C7000800A6000330A5004D
:1007A0006430A400A40BD22BA50BD02BA60BCE2B10
:1007B00008007D30A2007D30A300A30BDD2BA20B2F
:1007C000DB2B08000130CD231F151F19E52B1E0858
:1007D000B700031383161E0803138312B8003130C9
:1007E000B3008C203508AC003608AB001030B000E8
:1007F0002730AF00A5202A08B9003208AC00310824
:10080000AB000330AF00E830B000A5202A08BA00E2
:100810003208AC003108AB000030AF006430B000EB
:10082000A5202A08BB003208AC003108AB0000301C
:10083000AF000A30B000A5202A08BC003108BD0076
:020840000800AE
:02400E00313748
:00000001FF
